{
  "_format": "hh-sol-artifact-1",
  "contractName": "Kue",
  "sourceName": "src/hardhat/contracts/kueContract.sol",
  "abi": [
    {
      "inputs": [
        {
          "internalType": "uint256",
          "name": "idQuestion",
          "type": "uint256"
        },
        {
          "internalType": "string",
          "name": "_answer",
          "type": "string"
        }
      ],
      "name": "answerQuestion",
      "outputs": [],
      "stateMutability": "nonpayable",
      "type": "function"
    },
    {
      "inputs": [
        {
          "internalType": "uint256",
          "name": "_idQuestion",
          "type": "uint256"
        },
        {
          "internalType": "uint256",
          "name": "_answerId",
          "type": "uint256"
        }
      ],
      "name": "approvePayment",
      "outputs": [],
      "stateMutability": "nonpayable",
      "type": "function"
    },
    {
      "inputs": [
        {
          "internalType": "uint256",
          "name": "_idQuestion",
          "type": "uint256"
        }
      ],
      "name": "contributeToPool",
      "outputs": [],
      "stateMutability": "payable",
      "type": "function"
    },
    {
      "inputs": [
        {
          "internalType": "string",
          "name": "_title",
          "type": "string"
        },
        {
          "internalType": "string",
          "name": "_question",
          "type": "string"
        }
      ],
      "name": "createQuestion",
      "outputs": [],
      "stateMutability": "payable",
      "type": "function"
    },
    {
      "inputs": [
        {
          "internalType": "uint256",
          "name": "_idAnswer",
          "type": "uint256"
        }
      ],
      "name": "getAnswerById",
      "outputs": [
        {
          "components": [
            {
              "internalType": "uint256",
              "name": "id",
              "type": "uint256"
            },
            {
              "internalType": "address",
              "name": "autor",
              "type": "address"
            },
            {
              "internalType": "string",
              "name": "answer",
              "type": "string"
            }
          ],
          "internalType": "struct Kue.Answer",
          "name": "",
          "type": "tuple"
        }
      ],
      "stateMutability": "view",
      "type": "function"
    },
    {
      "inputs": [
        {
          "internalType": "uint256",
          "name": "_idQuestion",
          "type": "uint256"
        }
      ],
      "name": "getAnswersByQuestion",
      "outputs": [
        {
          "internalType": "uint256[]",
          "name": "",
          "type": "uint256[]"
        }
      ],
      "stateMutability": "view",
      "type": "function"
    },
    {
      "inputs": [
        {
          "internalType": "uint256",
          "name": "_page",
          "type": "uint256"
        }
      ],
      "name": "getLatestQuestion",
      "outputs": [
        {
          "components": [
            {
              "internalType": "uint256",
              "name": "id",
              "type": "uint256"
            },
            {
              "internalType": "string",
              "name": "title",
              "type": "string"
            },
            {
              "internalType": "string",
              "name": "question",
              "type": "string"
            },
            {
              "internalType": "uint256",
              "name": "poolMoney",
              "type": "uint256"
            },
            {
              "internalType": "address",
              "name": "questionAuthor",
              "type": "address"
            },
            {
              "internalType": "bool",
              "name": "isPaid",
              "type": "bool"
            },
            {
              "internalType": "uint256",
              "name": "numberOfContribution",
              "type": "uint256"
            }
          ],
          "internalType": "struct Kue.Question[]",
          "name": "",
          "type": "tuple[]"
        }
      ],
      "stateMutability": "view",
      "type": "function"
    },
    {
      "inputs": [
        {
          "internalType": "uint256",
          "name": "_idQuestion",
          "type": "uint256"
        }
      ],
      "name": "getQuestionById",
      "outputs": [
        {
          "components": [
            {
              "internalType": "uint256",
              "name": "id",
              "type": "uint256"
            },
            {
              "internalType": "string",
              "name": "title",
              "type": "string"
            },
            {
              "internalType": "string",
              "name": "question",
              "type": "string"
            },
            {
              "internalType": "uint256",
              "name": "poolMoney",
              "type": "uint256"
            },
            {
              "internalType": "address",
              "name": "questionAuthor",
              "type": "address"
            },
            {
              "internalType": "bool",
              "name": "isPaid",
              "type": "bool"
            },
            {
              "internalType": "uint256",
              "name": "numberOfContribution",
              "type": "uint256"
            }
          ],
          "internalType": "struct Kue.Question",
          "name": "",
          "type": "tuple"
        }
      ],
      "stateMutability": "view",
      "type": "function"
    },
    {
      "inputs": [
        {
          "internalType": "address",
          "name": "_owner",
          "type": "address"
        }
      ],
      "name": "getQuestionsByOwner",
      "outputs": [
        {
          "internalType": "uint256[]",
          "name": "",
          "type": "uint256[]"
        }
      ],
      "stateMutability": "view",
      "type": "function"
    }
  ],
  "bytecode": "0x608060405260008055600060035534801561001957600080fd5b50611d90806100296000396000f3fe6080604052600436106100865760003560e01c80638e5815df116100595780638e5815df14610157578063af26e5de14610173578063c6958c57146101b0578063dffc8b2e146101ed578063e25f3e021461020957610086565b8063447e52a01461008b578063612ef349146100b45780636a10ab09146100f1578063886b92ad1461012e575b600080fd5b34801561009757600080fd5b506100b260048036038101906100ad9190611528565b610246565b005b3480156100c057600080fd5b506100db60048036038101906100d691906115e2565b61041c565b6040516100e891906116cd565b60405180910390f35b3480156100fd57600080fd5b50610118600480360381019061011391906116ef565b6104b3565b60405161012591906116cd565b60405180910390f35b34801561013a57600080fd5b506101556004803603810190610150919061171c565b61051e565b005b610171600480360381019061016c91906116ef565b61073d565b005b34801561017f57600080fd5b5061019a600480360381019061019591906116ef565b61083c565b6040516101a79190611973565b60405180910390f35b3480156101bc57600080fd5b506101d760048036038101906101d291906116ef565b610d97565b6040516101e491906119e5565b60405180910390f35b61020760048036038101906102029190611a07565b610eb6565b005b34801561021557600080fd5b50610230600480360381019061022b91906116ef565b611089565b60405161023d9190611b22565b60405180910390f35b600015156002600084815260200190815260200160002060040160149054906101000a900460ff1615151461027a57600080fd5b6002600083815260200190815260200160002060040160009054906101000a900473ffffffffffffffffffffffffffffffffffffffff1673ffffffffffffffffffffffffffffffffffffffff163373ffffffffffffffffffffffffffffffffffffffff1614156102e957600080fd5b6102f1611269565b33816020019073ffffffffffffffffffffffffffffffffffffffff16908173ffffffffffffffffffffffffffffffffffffffff168152505081816040018190525060036000815461034190611b73565b9190508190558160000181815250508060056000836000015181526020019081526020016000206000820151816000015560208201518160010160006101000a81548173ffffffffffffffffffffffffffffffffffffffff021916908373ffffffffffffffffffffffffffffffffffffffff16021790555060408201518160020190805190602001906103d59291906112a0565b509050506004600084815260200190815260200160002081600001519080600181540180825580915050600190039060005260206000200160009091909190915055505050565b6060600160008373ffffffffffffffffffffffffffffffffffffffff1673ffffffffffffffffffffffffffffffffffffffff1681526020019081526020016000208054806020026020016040519081016040528092919081815260200182805480156104a757602002820191906000526020600020905b815481526020019060010190808311610493575b50505050509050919050565b60606004600083815260200190815260200160002080548060200260200160405190810160405280929190818152602001828054801561051257602002820191906000526020600020905b8154815260200190600101908083116104fe575b50505050509050919050565b6002600083815260200190815260200160002060040160009054906101000a900473ffffffffffffffffffffffffffffffffffffffff1673ffffffffffffffffffffffffffffffffffffffff163373ffffffffffffffffffffffffffffffffffffffff161461058c57600080fd5b6005600082815260200190815260200160002060010160009054906101000a900473ffffffffffffffffffffffffffffffffffffffff1673ffffffffffffffffffffffffffffffffffffffff163373ffffffffffffffffffffffffffffffffffffffff1614156105fb57600080fd5b600015156002600084815260200190815260200160002060040160149054906101000a900460ff1615151461062f57600080fd5b60006002600084815260200190815260200160002060030154905060006005600084815260200190815260200160002060010160009054906101000a900473ffffffffffffffffffffffffffffffffffffffff1690508073ffffffffffffffffffffffffffffffffffffffff166108fc839081150290604051600060405180830381858888f193505050501580156106cb573d6000803e3d6000fd5b508160026000868152602001908152602001600020600301546106ee9190611bbc565b600260008681526020019081526020016000206003018190555060016002600086815260200190815260200160002060040160146101000a81548160ff02191690831515021790555050505050565b6002600082815260200190815260200160002060040160009054906101000a900473ffffffffffffffffffffffffffffffffffffffff1673ffffffffffffffffffffffffffffffffffffffff163373ffffffffffffffffffffffffffffffffffffffff1614156107ac57600080fd5b600015156002600083815260200190815260200160002060040160149054906101000a900460ff161515146107e057600080fd5b60026000828152602001908152602001600020600501600081548092919061080790611b73565b9190505550346002600083815260200190815260200160002060030160008282546108329190611bf0565b9250508190555050565b60606000600a60018461084f9190611bbc565b6108599190611c46565b9050806000541161086957600080fd5b806000546108779190611bbc565b90506000600a821115610b13576000600a67ffffffffffffffff8111156108a1576108a06113fd565b5b6040519080825280602002602001820160405280156108da57816020015b6108c7611326565b8152602001906001900390816108bf5790505b50905060008390505b600a846108f09190611bbc565b811115610b0757600260008281526020019081526020016000206040518060e00160405290816000820154815260200160018201805461092f90611ccf565b80601f016020809104026020016040519081016040528092919081815260200182805461095b90611ccf565b80156109a85780601f1061097d576101008083540402835291602001916109a8565b820191906000526020600020905b81548152906001019060200180831161098b57829003601f168201915b505050505081526020016002820180546109c190611ccf565b80601f01602080910402602001604051908101604052809291908181526020018280546109ed90611ccf565b8015610a3a5780601f10610a0f57610100808354040283529160200191610a3a565b820191906000526020600020905b815481529060010190602001808311610a1d57829003601f168201915b50505050508152602001600382015481526020016004820160009054906101000a900473ffffffffffffffffffffffffffffffffffffffff1673ffffffffffffffffffffffffffffffffffffffff1673ffffffffffffffffffffffffffffffffffffffff1681526020016004820160149054906101000a900460ff16151515158152602001600582015481525050828481518110610adb57610ada611d01565b5b60200260200101819052508280610af190611b73565b9350508080610aff90611d30565b9150506108e3565b50809350505050610d92565b60008267ffffffffffffffff811115610b2f57610b2e6113fd565b5b604051908082528060200260200182016040528015610b6857816020015b610b55611326565b815260200190600190039081610b4d5790505b50905060008390505b6000811115610d8a57600260008281526020019081526020016000206040518060e001604052908160008201548152602001600182018054610bb290611ccf565b80601f0160208091040260200160405190810160405280929190818152602001828054610bde90611ccf565b8015610c2b5780601f10610c0057610100808354040283529160200191610c2b565b820191906000526020600020905b815481529060010190602001808311610c0e57829003601f168201915b50505050508152602001600282018054610c4490611ccf565b80601f0160208091040260200160405190810160405280929190818152602001828054610c7090611ccf565b8015610cbd5780601f10610c9257610100808354040283529160200191610cbd565b820191906000526020600020905b815481529060010190602001808311610ca057829003601f168201915b50505050508152602001600382015481526020016004820160009054906101000a900473ffffffffffffffffffffffffffffffffffffffff1673ffffffffffffffffffffffffffffffffffffffff1673ffffffffffffffffffffffffffffffffffffffff1681526020016004820160149054906101000a900460ff16151515158152602001600582015481525050828481518110610d5e57610d5d611d01565b5b60200260200101819052508280610d7490611b73565b9350508080610d8290611d30565b915050610b71565b508093505050505b919050565b610d9f611269565b60056000838152602001908152602001600020604051806060016040529081600082015481526020016001820160009054906101000a900473ffffffffffffffffffffffffffffffffffffffff1673ffffffffffffffffffffffffffffffffffffffff1673ffffffffffffffffffffffffffffffffffffffff168152602001600282018054610e2d90611ccf565b80601f0160208091040260200160405190810160405280929190818152602001828054610e5990611ccf565b8015610ea65780601f10610e7b57610100808354040283529160200191610ea6565b820191906000526020600020905b815481529060010190602001808311610e8957829003601f168201915b5050505050815250509050919050565b610ebe611326565b6000808154610ecc90611b73565b91905081905581600001818152505082816020018190525081816040018190525033816080019073ffffffffffffffffffffffffffffffffffffffff16908173ffffffffffffffffffffffffffffffffffffffff168152505060008160a001901515908115158152505034816060018181525050806002600083600001518152602001908152602001600020600082015181600001556020820151816001019080519060200190610f7e9291906112a0565b506040820151816002019080519060200190610f9b9291906112a0565b506060820151816003015560808201518160040160006101000a81548173ffffffffffffffffffffffffffffffffffffffff021916908373ffffffffffffffffffffffffffffffffffffffff16021790555060a08201518160040160146101000a81548160ff02191690831515021790555060c08201518160050155905050600160003373ffffffffffffffffffffffffffffffffffffffff1673ffffffffffffffffffffffffffffffffffffffff16815260200190815260200160002081600001519080600181540180825580915050600190039060005260206000200160009091909190915055505050565b611091611326565b600260008381526020019081526020016000206040518060e0016040529081600082015481526020016001820180546110c990611ccf565b80601f01602080910402602001604051908101604052809291908181526020018280546110f590611ccf565b80156111425780601f1061111757610100808354040283529160200191611142565b820191906000526020600020905b81548152906001019060200180831161112557829003601f168201915b5050505050815260200160028201805461115b90611ccf565b80601f016020809104026020016040519081016040528092919081815260200182805461118790611ccf565b80156111d45780601f106111a9576101008083540402835291602001916111d4565b820191906000526020600020905b8154815290600101906020018083116111b757829003601f168201915b50505050508152602001600382015481526020016004820160009054906101000a900473ffffffffffffffffffffffffffffffffffffffff1673ffffffffffffffffffffffffffffffffffffffff1673ffffffffffffffffffffffffffffffffffffffff1681526020016004820160149054906101000a900460ff161515151581526020016005820154815250509050919050565b604051806060016040528060008152602001600073ffffffffffffffffffffffffffffffffffffffff168152602001606081525090565b8280546112ac90611ccf565b90600052602060002090601f0160209004810192826112ce5760008555611315565b82601f106112e757805160ff1916838001178555611315565b82800160010185558215611315579182015b828111156113145782518255916020019190600101906112f9565b5b509050611322919061137b565b5090565b6040518060e0016040528060008152602001606081526020016060815260200160008152602001600073ffffffffffffffffffffffffffffffffffffffff168152602001600015158152602001600081525090565b5b8082111561139457600081600090555060010161137c565b5090565b6000604051905090565b600080fd5b600080fd5b6000819050919050565b6113bf816113ac565b81146113ca57600080fd5b50565b6000813590506113dc816113b6565b92915050565b600080fd5b600080fd5b6000601f19601f8301169050919050565b7f4e487b7100000000000000000000000000000000000000000000000000000000600052604160045260246000fd5b611435826113ec565b810181811067ffffffffffffffff82111715611454576114536113fd565b5b80604052505050565b6000611467611398565b9050611473828261142c565b919050565b600067ffffffffffffffff821115611493576114926113fd565b5b61149c826113ec565b9050602081019050919050565b82818337600083830152505050565b60006114cb6114c684611478565b61145d565b9050828152602081018484840111156114e7576114e66113e7565b5b6114f28482856114a9565b509392505050565b600082601f83011261150f5761150e6113e2565b5b813561151f8482602086016114b8565b91505092915050565b6000806040838503121561153f5761153e6113a2565b5b600061154d858286016113cd565b925050602083013567ffffffffffffffff81111561156e5761156d6113a7565b5b61157a858286016114fa565b9150509250929050565b600073ffffffffffffffffffffffffffffffffffffffff82169050919050565b60006115af82611584565b9050919050565b6115bf816115a4565b81146115ca57600080fd5b50565b6000813590506115dc816115b6565b92915050565b6000602082840312156115f8576115f76113a2565b5b6000611606848285016115cd565b91505092915050565b600081519050919050565b600082825260208201905092915050565b6000819050602082019050919050565b611644816113ac565b82525050565b6000611656838361163b565b60208301905092915050565b6000602082019050919050565b600061167a8261160f565b611684818561161a565b935061168f8361162b565b8060005b838110156116c05781516116a7888261164a565b97506116b283611662565b925050600181019050611693565b5085935050505092915050565b600060208201905081810360008301526116e7818461166f565b905092915050565b600060208284031215611705576117046113a2565b5b6000611713848285016113cd565b91505092915050565b60008060408385031215611733576117326113a2565b5b6000611741858286016113cd565b9250506020611752858286016113cd565b9150509250929050565b600081519050919050565b600082825260208201905092915050565b6000819050602082019050919050565b600081519050919050565b600082825260208201905092915050565b60005b838110156117c25780820151818401526020810190506117a7565b838111156117d1576000848401525b50505050565b60006117e282611788565b6117ec8185611793565b93506117fc8185602086016117a4565b611805816113ec565b840191505092915050565b611819816115a4565b82525050565b60008115159050919050565b6118348161181f565b82525050565b600060e083016000830151611852600086018261163b565b506020830151848203602086015261186a82826117d7565b9150506040830151848203604086015261188482826117d7565b9150506060830151611899606086018261163b565b5060808301516118ac6080860182611810565b5060a08301516118bf60a086018261182b565b5060c08301516118d260c086018261163b565b508091505092915050565b60006118e9838361183a565b905092915050565b6000602082019050919050565b60006119098261175c565b6119138185611767565b93508360208202850161192585611778565b8060005b85811015611961578484038952815161194285826118dd565b945061194d836118f1565b925060208a01995050600181019050611929565b50829750879550505050505092915050565b6000602082019050818103600083015261198d81846118fe565b905092915050565b60006060830160008301516119ad600086018261163b565b5060208301516119c06020860182611810565b50604083015184820360408601526119d882826117d7565b9150508091505092915050565b600060208201905081810360008301526119ff8184611995565b905092915050565b60008060408385031215611a1e57611a1d6113a2565b5b600083013567ffffffffffffffff811115611a3c57611a3b6113a7565b5b611a48858286016114fa565b925050602083013567ffffffffffffffff811115611a6957611a686113a7565b5b611a75858286016114fa565b9150509250929050565b600060e083016000830151611a97600086018261163b565b5060208301518482036020860152611aaf82826117d7565b91505060408301518482036040860152611ac982826117d7565b9150506060830151611ade606086018261163b565b506080830151611af16080860182611810565b5060a0830151611b0460a086018261182b565b5060c0830151611b1760c086018261163b565b508091505092915050565b60006020820190508181036000830152611b3c8184611a7f565b905092915050565b7f4e487b7100000000000000000000000000000000000000000000000000000000600052601160045260246000fd5b6000611b7e826113ac565b91507fffffffffffffffffffffffffffffffffffffffffffffffffffffffffffffffff821415611bb157611bb0611b44565b5b600182019050919050565b6000611bc7826113ac565b9150611bd2836113ac565b925082821015611be557611be4611b44565b5b828203905092915050565b6000611bfb826113ac565b9150611c06836113ac565b9250827fffffffffffffffffffffffffffffffffffffffffffffffffffffffffffffffff03821115611c3b57611c3a611b44565b5b828201905092915050565b6000611c51826113ac565b9150611c5c836113ac565b9250817fffffffffffffffffffffffffffffffffffffffffffffffffffffffffffffffff0483118215151615611c9557611c94611b44565b5b828202905092915050565b7f4e487b7100000000000000000000000000000000000000000000000000000000600052602260045260246000fd5b60006002820490506001821680611ce757607f821691505b60208210811415611cfb57611cfa611ca0565b5b50919050565b7f4e487b7100000000000000000000000000000000000000000000000000000000600052603260045260246000fd5b6000611d3b826113ac565b91506000821415611d4f57611d4e611b44565b5b60018203905091905056fea2646970667358221220dbd506d07d9a531c1aebf88c033c716d83a43e1386fd34695f862aa83baeec6e64736f6c63430008090033",
  "linkReferences": {},
  "deployedLinkReferences": {}
}